:400000000080002011000000A10B0000A10B000008B5044B1A6803F53F5302331A6000F0DFFD00BFFA46004010B5054C237833B9044B13B10448AFF300800123237010BD43
:40004000C882FF1F0000000018340000084B10B51BB108490848AFF300800848036803B910BD074B002BFBD0BDE81040184700BF00000000CC82FF1F18340000C880FF1F68
:400080000000000008B562B600F02CFB002001F0F3FBFBE708B501F053FC184A136843F00503136000F0BEFB02F064F801F0E8FD01F0CEFF01F05EFE01F050FF01F0D4FE10
:4000C00032221146002000F071FF32220121032000F06CFF32220121042000F067FF052000F09EFE062000F09BFE022000F098FE012000F095FE01F005FC08BD10E000E0BE
:4001000000BFFDE700B583B00E2001F0F3F901A9022001F04FF9019B13F0020F06D0082000F0EEF9022001F017F90FE013F0040F06D0092000F0E4F9042001F00DF905E0AB
:4001400013F0080F02D0082001F006F9019801F003F9D9E708B5034A13880133138001F0D1FB08BDE682FF1F08B500F041F801F0C9FB08BD08B501F007FC012804D102218F
:40018000084601F037F908BD01F006FC012803D10421022001F02EF908BD00BF08B500F04DFB01F0AFFB08BD08B5044B1968044800F08AFB01F0A6FB08BD00BF78370000D0
:4001C0007C37000008B502F08BFC084B83FB0023A3EBE07303EB4303C31A0133C3EB431203EB8203D80080B208BD00BF5655555510B5012001F0CCFC3F2000F0C1FA02F008
:400200006FFC174B184003D5013860F001000130144C01302080002001F0BAFC2388012B0CD1062000F0ACFA00240E4B5C8001221146022000F0BAFE204610BD022B0CD1C4
:400240005B2000F09DFA0024064B5C8001221146022000F0ABFE204610BD4FF0FF3010BD01000080E482FF1F70B5A0B0044680220021684602F003FC984B9B88092B00F236
:400280002A81964B5B88B3F57A7F80F0F780082C02D0092C79D01EE1904B1B88022B46D1022000F031FE8D4DAC880134A4B2AC80684602F073FC22468949684402F04AFCCF
:4002C000684602F06BFC874A8749684402F042FC6C88864E336823443360684602F05EFC22468349684402F035FCB4880134A4B2B480684602F052FC22467E49684402F06A
:4003000029FC684601F0C4FB00F05EFAAB880A2B05D10322AA71082000F0F2F8DBE00821022001F067F800226C4B9A71D3E0022000F0EAFD694DAC880134A4B2AC8068463D
:4003400002F02CFC22466649684402F003FC684602F024FC684A6449684402F0FBFB684601F096FB00F030FAAB880A2B05D10322AA71082000F0C4F8ADE00821022001F097
:4003800039F80022554B9A71A5E0544B1B88012B46D1022000F0B8FD504DAC880134A4B2AC80684602F0FAFB22464D49684402F0D1FB684602F0F2FB4A4A4B49684402F096
:4003C000C9FB6C88494E336823443360684602F0E5FB22464649684402F0BCFBB4880134A4B2B480684602F0D9FB22464149684402F0B0FB684601F04BFB00F0E5F9AB88BD
:400400000A2B05D10322AA71082000F079F862E00821022000F0EEFF0022304B9A715AE0022000F071FD2D4DAC880134A4B2AC80684602F0B3FB22462949684402F08AFB6C
:40044000684602F0ABFB2C4A2749684402F082FB684601F01DFB00F0B7F9AB880A2B05D10322AA71082000F04BF834E00821022000F0C0FF0022194B9A712CE0022000F048
:4004800043FD164DAC880134A4B2AC80684602F085FB22461249684402F05CFB684602F07DFB164A1049684402F054FB684601F0EFFA00F089F9AB880A2B05D10322AA71A0
:4004C000082000F01DF806E00821022000F092FF0022024B9A7120B070BD00BFE482FF1F1C34000030340000503400008083FF1F583400007034000090340000AC34000036
:4005000070B590B0414B9B79022B25D0032B2DD0002B78D108280ED13C4B9B88092B72D8FFF750FE00220146012000F03FFD0222364B9A7167E0092865D1344B9B88092B90
:4005400061D8FFF73FFE00220146012000F02EFD02222E4B9A7156E0092802D1FFF784FE51E008284FD1FFF77FFE4CE0002000F0CBFC684602F012FB254A2649684402F0F0
:40058000E9FA684602F00AFB234CA2882349684402F0E0FA684602F001FB22682049684402F0D8FA206802F065F81E4902F06EF90446684602F0F2FA0546204602F002FA2B
:4005C000064602F05BF80146204601F0A1FF164902F0A8F802F0F6F90346324613490DEB050002F0B7FA684601F052FA00F01AF900F084F900F0E8F80821022000F0FAFE3F
:400600000022024B9A7110B070BD00BFE482FF1FB8340000C43400008083FF1FCC340000EC340000000020410024744904350000024A136801331360704700BF8883FF1F63
:4006400008B5002000F030FE08BD00BF684620F007018D4619B572B6EFF311841E4B1B68DBB20F2B10D9103B23F0030202F1604202F564421168DB0003F01803E0229A4086
:400680000A4022FA03F306E00F2B03D1134B1B681B0E00E0002383F31188114A136801331360012B01D101F0CDFD62B6FFF7C8FF72B684F3118800F0F1FF094A1368013BA1
:4006C00013601BB901F0C7FD01F08BFD62B6BDE819408546704700BF04ED00E020ED00E09883FF1F10B5A0B001F0B8F91D4801F075F9002002F05AFA02F0CAF900F05CFB5A
:400700001949002000F084FB45F6BF5000F01AFB00F00CFB45F6BF52144B1A60144A136843F00203136080220021684602F0A7F9684602F033FA0F4C0F4A2146684402F050
:4007400009FA684602F02AFA0C4A2146684402F001FA00F039F8684601F09AF9002020B010BD00BF750100003106000014E000E010E000E044350000243500004C350000E9
:4007800010B5044600F0010001F0A2F9C4F3400001F0AAF9C4F3800001F0B2F9C4F3C00001F0BAF9C4F3001001F0E6F9C4F3401001F0BEF9C4F3801001F0C6F9E00901F01D
:4007C000CFF9002010BD00BF08B5012001F0E0F93F20FFF7D5FF002001F0DAF93F20FFF7CFFF002008BD00BF08B510B901F0D0FC08BD012803D1002001F044FC08BD0228C4
:4008000003D1002001F032FC08BD032808D1002001F0BEFC002001F035FC002001F026FC08BD00BF08B501F0A5FC01F029FA01F00FFC00210320FFF7D7FF08BD38B50024D3
:4008400011E0C4F1FF031F4D35F8130001F0B0FB35F8140001F03EFC002001F0C1F9052000F01AFA0134FF2CEBD9002411E0C4F1FF03144D35F8130001F02CFC35F814003D
:4008800001F0AEF9002001F093FB052000F004FA0134FF2CEBD9002411E0C4F1FF03094D35F8130001F09CF935F8140001F080FB002001F00FFC052000F0EEF90134FF2CBD
:4008C000EBD938BD78350000F8B506460F46002410E004EB44025300F518F05C01F074FA687801F0EBFAA87801F0F4F9A88800F0D3F90134BC42ECD3F8BD00BF08B501F03C
:4009000043FB01F0D3FB01F057F9002001F050FB002001F0DFFB002001F062F901F040FA01F0C4F901F0B6FA002001F04DFA002001F0D0F9002001F0C1FA08BDFEE700BFE5
:40094000F0B40022174611E050F82760F3B226F0FF0608E001EB420511F812406D78A5550132013BDBB2002BF4D101371C2FEBD9F0BC7047064B1B78DBB203F00701054A2E
:4009800011701B09013213704422034B1A707047CF0100496E5800407658004008B50A46002102F06CF808BD38B50223274A1380182227490A7002310B8002310A7019258E
:4009C00002310D8002310A70224A137008224FF040231A70032103F5007319701E4B1B78DBB21E490B701E4B1A8041F25122023B1A8000240CE01B4B1B7803F0010343EA15
:400A0000440404F003044FF4F07001F0CDFB013D0DB1032CEFD115B90320FFF78FFF124B4FF480721A8007221A7000220F490A704820023108701A700222033B1A700C4A05
:400A4000137843F00703137038BD00BF80400040824000400043004008010049A146004022420040254200400440004006400040A243004008B501F0F7FF08BD38B572B681
:400A800000240CE0344D630019194A0011462A44084691882858FFF781FF0134E4B2062CF0D900240BE02C49A3001819420088180622016BC06AFFF7DDFF0134E4B2002C1D
:400AC000F1D026494FF09040FFF73AFF244A137843F0020313701032137843F002031370204C237843F040032370A2F58632513A137843F01003137008221B491B48FFF727
:400B0000B9FF0A221A491B48FFF7B4FF08221A491A48FFF7AFFF082219491A48FFF7AAFF082219491948FFF7A5FF194A137843F008031370174D61232B70FFF735FF8123BB
:400B40002B700122144B1A70FFF714FF0E2221461248FFF78FFF38BDB43700007400004803500140A0430040C408004802510040CC080048C0510040D8080048125100401E
:400B8000E008004822510040E808004832510040224300400048004004000840B043004008B501F035FF03680C2B00D1FEE7FEE708B5094B1A681044084BC31A802B02DCEC
:400BC000054B186005E001F023FF0C2303604FF0FF32104608BD00BFCC80FF1FD095FF1F08B5104E104D16E029686B68AC68002204E051F8040B43F8040B0432A242F8D1FB
:400C0000E868002203E0002143F8041B04328242F9D11035013E002EE6D101F0FFFEFFF731FAFEE701000000D43B000008B5104A104B1A60104A136843F4007313600023B2
:400C40000AE0032B03D80D4A52F8231000E00C490C4A42F8231001332F2BF2D90A4B1A780A4B1A70074A0A4B1A60FFF707FF08BD0004FA050CED00E014ED00E000000000F8
:400C8000A10B00000080FF1FBC760040C080FF1F08ED00E001BE704710B5044605E0084B186801F081FAA4F50044B4F5004FF6D8034B586800FB04F001F076FA10BD00BF0F
:400CC000D080FF1F70B504460E46074B1D680F2802D90020FFF7DEFF04F00F0455F8240045F8246070BD00BF08ED00E038B504460D46072902D90020FFF7CCFF1F2C02D951
:400D00000020FFF7C7FF04F01F0000F1604000F564406D01EDB2057038BD00BF024A136843F002031360704710E000E008B5FFF7F5FF034A136843F00103136008BD00BFCE
:400D400010E000E020F07F40014B1860704700BF14E000E0012805D1054A136843F0040313607047024A136823F004031360704710E000E0024B1868C0F30040704700BF88
:400D800010E000E010B5FFF7F5FF01280BD107E0054B03EB84035B6803B19847013400E00024042CF4D910BDF082FF1F0022014B1A60704718E000E008B5002305E00F4A85
:400DC00002EB8302002151600133042BF7D90C490F20FFF777FF0120FFF7BCFF094BDB680948A0FB03308009FFF7ACFFFFF7DEFF4FF40042054B1A6008BD00BFF082FF1FA4
:400E0000850D0000D080FF1FD34D621000E100E0024B03EB8003586859607047F082FF1F38B5EFF3108572B606284ED82D4B53F82030002B4BD02B4A013B42F820302A4BF8
:400E400053F82030032B07D10222274B43F820200022264B43F8202000F090FC244B1B68002B36D1234B1C6800F066FCB0F1FF3F31D0214B53F82020204B1B689A422CD928
:400E8000B4F1FF3F03D00221174A42F824101C4A52F820201343194A13600022124B43F8202000F005FC174B53F820304BB10024144B43F8204040F0004001F0D5F92046D7
:400EC0000CE001F0D1F9002008E0032006E0042004E0002002E0002000E0002085F3108838BD00BF5081FF1F0C82FF1F4483FF1F9883FF1FEC81FF1F303A00006883FF1F95
:400F0000043A00000C83FF1FEFF3108272B604283CD803012249CB58002B39D010B400EB40018B001F49CC581F4B03EBC4035968884209D11A4B03EB0013D9681A4B03EB9F
:400F4000C40461600DE01946154B03EB0113DB689842F8D1124B03EB0014E46803EB0111CC600F4B03EB0013DC68B4F1FF3F08D00B4B03EB0011896803EB04139C6821446F
:400F80009960030100200649C85005E0032000E0052082F31088704782F3108810BC70477893FF1F5C390000F480FF1FF8B5EFF3108472B6042825D800EB4005AB00184D48
:400FC000EB5803EB4306B500164E75598D421BD34AB103EB43039E00124B1E44B3689A4214D3954214D3A9B103010F4DEB589BB90301EE180127EF507260013900F086F86F
:4010000000200AE0032008E0082006E0082004E0082002E0082000E0072084F31088F8BD5C390000C03900007893FF1F18B108B5C368984708BD704708B508B1406800E0C3
:401040000020062816D80C4B53F8203093B10A4A013B42F82030094B53F82030032B07D10222064B43F820200022054B43F8202000F084FB08BD00BF5081FF1F0C82FF1F84
:401080004483FF1F18B1034640689B6801E00023184606281DD80F4A52F82020CAB10E4A52F82010032914D010B50C4C54F820201A4344F820200A4A52F82020134207D03D
:4010C000012905D10222044B43F8202000F056FB10BD7047CC3900000C82FF1F4483FF1F2883FF1F80B108B50378012B06D013B1032B06D008BDFFF79FFF08BDFFF7C2FFD6
:4011000008BDFFF793FF08BD704700BF30B400EB40029300214AD258214B03EBC2035C68B4F1FF3F04D11E4B03EBC20250602DE01C4B03EB04139B6899420AD2184D05EB00
:40114000C2025060174A02EB04125B1A93601DE01C46144B03EB04139A68891ADB68B3F1FF3F05D00F4A02EB031292689142EFD2B3F1FF3F05D00B4A02EB031295686D1A52
:401180009560084A02EB0414E0601C46054B03EB00108160C46030BC704700BF5C390000F480FF1F7893FF1F38B5394A02EBC0035C6852F83030013342F8303000EB4001B4
:4011C0008A0034498A58934203D90022304B43F83020B4F1FF3F59D02F4B03EB04139B68002B4ED1214600E019462B4B03EB0113DB68B3F1FF3F05D0274A02EB03129268D0
:40120000002AF1D0244A02EB01114FF0FF32CA601F4A02EBC0004360B3F1FF3F07D01E4A02EB03139A68013A9A6000E02C4604EB44029300194A13441B7A7BB904EB4402D6
:401240009300164A13445A68154B53F8223003EB83039A0013481044FFF744FF0E4B03EB0413DD68596821B101392046FFF74EFF03E024010022084B1A51B5F1FF3FD5D1E4
:4012800038BD054A02EB0414013BA36038BD00BFF480FF1FC03900007893FF1F5C390000AC390000F838000038B5EFF3108572B6002838D1FFF778FF204B1B68002B34D14C
:4012C0001F4B1C6800F038FAB0F1FF3F2FD01D4B53F820201C4B1B689A422AD9B4F1FF3F03D00221194A42F82410194A52F820201343154A13600022144B43F8202000F099
:40130000D7F9144B53F820304BB10024114B43F8204040F0004000F0A7FF20460AE000F0A3FF002006E0032004E0002002E0002000E0002085F3108838BD00BF9883FF1FB8
:40134000EC81FF1F303A00006883FF1F0C82FF1F043A00000C83FF1FEFF3108372B6114A1168114A126882B9B1F1FF3F0FD00F4A52F821206AB110B40D4C54F8212022EAE3
:40138000000044F82100002007E0022002E0022000E0012083F31088704783F3108810BC704700BFEC81FF1F9883FF1FCC3900004483FF1F06280FD80B4B53F820306BB1BD
:4013C0000A4B53F82030032B0AD059B1084B53F820300B60002070470320704701207047072070470E207047CC3900000C82FF1F4483FF1F38B5EFF3108472B6062853D8CC
:40140000324B53F82030002B50D0314B53F82030032B4DD02F4D55F820200A4345F820202D4A52F82020114244D0012B44D10222274B43F8202000F0A1F9284B1B68002BAF
:401440003CD1274B1D6800F077F9B0F1FF3F37D0244B53F82020244B1B689A4232D9B5F1FF3F03D002211A4A42F825101F4A52F8202013431C4A13600022154B43F8202083
:4014800000F016F91A4B53F820304BB10025184B43F8205040F0004000F0E6FE284612E000F0E2FE00200EE003200CE001200AE0072008E0002006E0002004E0002002E047
:4014C000002000E0002084F3108838BDCC3900000C82FF1F4483FF1F2883FF1F9883FF1FEC81FF1F303A00006883FF1F043A00000C83FF1F38B5EFF3108472B6364B1D68B6
:40150000364B1B68002B5DD1B5F1FF3F5CD0344B53F82530002B59D0324B53F82530034256D1314B43F825000122304B43F825202F4B53F825002F490B6823EA00030B60F8
:401540002D4B43F825202D4B53F82520224B1A6000F0F2F8B0F1FF3F06D0294B53F82020244B1B689A420DD81B4B1868B0F1FF3F03D000221D4B43F8202040F0004000F046
:4015800073FE1AE00021194A42F82010184A52F820201343174A136000F08AF8164B53F8203043B10022144B43F8202040F0004000F05AFE01E000F057FE00200A4B43F8D0
:4015C000250006E0022004E0022002E0012000E0002084F3108838BDEC81FF1F9883FF1FCC3900004483FF1F2883FF1F0C82FF1F043A00006883FF1F0C83FF1FF081FF1F0B
:40160000303A000008B500F053F8084B53F8203043B10022054B43F8202040F00040044B186008BD024B186008BD00BF0C83FF1F9C83FF1F10B500F07FF8124B1B68B0F19D
:40164000FF3F1AD0104A52F82010104A1268914213D9B3F1FF3F03D002240D4941F8234000210B4B43F820100A4B53F820301A43064B1A60FFF7C6FF10BD43F00043064AC6
:40168000136010BDEC81FF1F303A00006883FF1F0C82FF1F043A00009C83FF1F034B1B6813B10022014B1A60704700BF8C83FF1FF0B4184B19880B0A174AD356B3F1FF3F7C
:4016C00001D1535601E008335BB2144D55F82320134850F82200134E56F8224045F82340114D2F6846F822702A60B4F1FF3F09D10E4A42F82340012202FA03F321EA0301BA
:40170000044B19800A4B19680A4A42F820101860F0BC70476483FF1FEC370000AC81FF1F4093FF1F1881FF1F6083FF1F6C81FF1FEC81FF1FF081FF1F0C4B1A88130A0C49A6
:40174000CB56B3F1FF3F01D18B5601E008335BB2B3F1FF3F06D0074A52F82320064B53F8220070474FF0FF30704700BF6483FF1FEC370000AC81FF1F4093FF1F30B4144BF4
:4017800053F82020134C2368134951F823502560124C44F823004FF0FF3441F82340104951F82210A1420AD10E4951F820400E480188214301800D4941F8223002E00648E5
:4017C00040F82130064941F8223030BC704700BF3481FF1F6083FF1F1881FF1F4093FF1F6C81FF1F303A00006483FF1FAC81FF1F10B150F8210070474FF0FF30704700BF1E
:401800000122014B1A60FEE79483FF1F70B50546124B53F8306000241CE0104B03EBC50321465868FFF7E4FF0D4A52F82030013B42F820300B4B53F82030032B07D10222FA
:40184000084B43F820200022074B43F82020FFF795FF0134B442E0D370BD00BFEC3800005081FF1F0C82FF1F4483FF1F18B908B5FFF7CCFF08BD7047194B1A4ADA621A4A80
:401880009A631A4ADA63EFF3108272B6184B1B6813BB10B5044600F053F8164B1C600122134B1A602046FFF7E1FFFFF745FFB0F1FF3F0ED0104B53F82030104A11680B43CE
:4018C000136000220E4B43F82020FFF7F1FE00F0CBFC62B6FFF794FF82F31088072070470080FF1F29220000ED2100004D0600009483FF1FC893FF1F043A00006883FF1F18
:401900000C82FF1F08B5EFF3108272B6094B1968094B1B6833B94FF0FF30084B43F82100002000E0022010B9084600F0F6FC82F3108808BDEC81FF1F9883FF1FFC80FF1FA2
:4019400038B50D4B1D68EFF3108472B600F03CFC0A4A136843F07F431360094B2B6404210020FFF7C3F9074A136843F00103136084F3108838BD00BF08ED00E020ED00E0CB
:401980007501000000E100E0024B1878C0F3C000704700BF01510040024B1878C0F30010704700BF01510040014B1B681864704708ED00E04001C0B2014B1870704700BF1C
:4019C00000E400E00122014B1A60704700E100E00122014B1A60704780E100E010B50446FFF7F6FF2046FFF7DFFF0720FFF7E2FFFFF7E8FF10BD00BF7222084B1A70202293
:401A0000A3F580731A700622A2331A70472210331A7000224F331A70704700BF8865004010B500F0C9FB04460B4A137843F020031370A2F58072137843F01003137002F2B6
:401A40000112137843F01003137000F033F8204600F0B6FB10BD00BF9865004008B5054B1B7823B9FFF7C8FF0122024B1A70FFF7D7FF08BD7083FF1F034B1B7813F0040F48
:401A8000FAD1024B18707047696500404965004038B5074B1B782BB938BDFFF7EDFF0134A4B201E005460024285D0028F5D138BD7083FF1F054A137843F004031370103219
:401AC000137843F004031370704700BFA2430040044A137803F07F03C001C0B218431070704700BF10510040044A137803F0BF03800100F04000184310707047105100401E
:401B0000044A137803F0DF03400100F0200018431070704710510040044A137803F0EF03000100F0100018431070704710510040044A137803F0FB03800000F004001843E8
:401B40001070704710510040044A137803F0FD03400000F0020018431070704710510040044A137803F0FE0300F0010018431070704700BF10510040044A137803F0F703E6
:401B8000C00000F0080018431070704710510040044A137803F0DF03400100F0200018431070704730510040024A137843F080031370704773640040024A137803F07F03BE
:401BC0001370704773640040014B1880704700BF04680040014B1880704700BF84680040014B1880704700BF44680040014B1870704700BF83640040014B1878704700BFFF
:401C000063640040014B188880B27047A468004008B501E0FFF7F6FFFFF7EEFF10F0100FF8D108BD10B5144A137803F0C00343F0090313701F32137843F0010313700F4C4C
:401C4000237843F001032370FF20FFF7BDFFFF20FFF7C0FF7F20FFF7C3FF0020FFF7C6FF00F0AAFA237843F01003237000F0A8FAFFF7CEFF10BD00BF7364004093640040F1
:401C800008B5054B1B7823B9FFF7CCFF0122024B1A70FFF789FF08BD7283FF1F024A137843F08003137070477B640040024A137803F07F03137070477B640040014B188028
:401CC000704700BF14680040014B1880704700BF94680040014B1880704700BF54680040014B1870704700BF8B640040014B1878704700BF6B640040014B188880B2704717
:401D0000B468004008B501E0FFF7F6FFFFF7EEFF10F0100FF8D108BD10B5144A137803F0C00343F0090313701F32137843F0010313700F4C237843F001032370FF20FFF79D
:401D4000BDFFFF20FFF7C0FF7F20FFF7C3FF0020FFF7C6FF00F030FA237843F01003237000F02EFAFFF7CEFF10BD00BF7B6400409B64004008B5054B1B7823B9FFF7CCFF11
:401D80000122024B1A70FFF789FF08BD7383FF1F024A137843F08003137070477E640040024A137803F07F03137070477E640040014B1880704700BF1C680040014B18803F
:401DC000704700BF9C680040014B1880704700BF5C680040014B1870704700BF8F640040014B1878704700BF6F640040014B188880B27047BC68004008B501E0FFF7F6FF27
:401E0000FFF7EEFF10F0100FF8D108BD10B5144A137803F0C00343F0090313702032137843F0010313700F4C237843F001032370FF20FFF7BDFFFF20FFF7C0FF7F20FFF75B
:401E4000C3FF0020FFF7C6FF00F0B6F9237843F01003237000F0B4F9FFF7CEFF10BD00BF7E6400409F64004008B5054B1B7823B9FFF7CCFF0122024B1A70FFF789FF08BDE7
:401E80007483FF1F024A137843F08003137070477D640040024A137803F07F03137070477D640040014B1880704700BF18680040014B1880704700BF98680040014B1880E6
:401EC000704700BF58680040014B1870704700BF8D640040014B1878704700BF6D640040014B188880B27047B868004008B501E0FFF7F6FFFFF7EEFF10F0100FF8D108BD40
:401F000010B5144A137803F0C00343F0090313701F32137843F0010313700F4C237843F001032370FF20FFF7BDFFFF20FFF7C0FF7F20FFF7C3FF0020FFF7C6FF00F03CF929
:401F4000237843F01003237000F03AF9FFF7CEFF10BD00BF7D6400409D64004008B5054B1B7823B9FFF7CCFF0122024B1A70FFF789FF08BD7583FF1F024A137843F08003FC
:401F80001370704774640040024A137803F07F031370704774640040014B1880704700BF08680040014B1880704700BF88680040014B1880704700BF48680040014B18707F
:401FC000704700BF85640040014B1878704700BF65640040014B188880B27047A868004008B501E0FFF7F6FFFFF7EEFF10F0100FF8D108BD10B5144A137803F0C00343F012
:40200000090313702032137843F0010313700F4C237843F001032370FF20FFF7BDFFFF20FFF7C0FF7F20FFF7C3FF0020FFF7C6FF00F0C2F8237843F01003237000F0C0F81D
:40204000FFF7CEFF10BD00BF746400409564004008B5054B1B7823B9FFF7CCFF0122024B1A70FFF789FF08BD7683FF1F044A137803F07F03C001C0B218431070704700BF5D
:4020800000510040044A137803F0FE0300F0010018431070704700BF20510040024A137843F08003137070477A640040024A137803F07F03137070477A640040014B188062
:4020C000704700BF10680040014B1880704700BF90680040014B1880704700BF50680040014B1870704700BF89640040014B1878704700BF69640040014B188880B2704723
:40210000B068004008B501E0FFF7F6FFFFF7EEFF10F0100FF8D108BD10B5144A137803F0C00343F0090313701E32137843F0010313700F4C237843F001032370FF20FFF79E
:40214000BDFFFF20FFF7C0FF7F20FFF7C3FF0020FFF7C6FF00F030F8237843F01003237000F02EF8FFF7CEFF10BD00BF7A6400409964004008B5054B1B7823B9FFF7CCFF14
:402180000122024B1A70FFF789FF08BD7783FF1F044A137803F0BF03800100F04000184310707047005100400230800803D000BF01380046FCD17047EFF3108072B67047C8
:4021C00080F31088704700BF18484FF47F0102680A43026016486FF07F4102680A400260704714484FF080510160704772B611484FF000610160FFF71DFA0F48006800F016
:40220000C3F858B10C4800684FF080730B4A0C490FB40FB46FF00600004700BF6FF0060062B6004762B600DF08B0704720ED00E01CED00E004ED00E09C83FF1F69220000B8
:4022400025220000EFF30880054908600548006880F3088870470248006880F3088870476082FF1F5482FF1F411C8900154A11440968154A136899421AD0F0B444464D46BD
:4022800056465F46F0B400B5104C9B002344EFF308851D60116089002144096881F3088802BC8E46F0BCA046A946B246BB46F0BC002806DB00B500F05BF802BC8E46FFF725
:4022C000D3BF7047843A00006C83FF1F5882FF1FF0B444464D4656465F46F0B400B5EFF3038308B48000174901440968164A0244EFF30883136088471448804704BC4FF046
:402300008070024382F3038801BC8646F0BCA046A946B246BB46F0BC704780000A4901440A6882F3088804BC4FF08070024382F3038808BC9E46F0BCA046A946B246BB461D
:40234000F0BC70474C3A00005C93FF1F5123000008B572B6014B1868FFF7DFFFEC81FF1F08B5024B1868FFF7B3FF08BDEC81FF1F08B562B6FFF7F4FF72B600F041F8014B06
:40238000186808BD9C83FF1F00280BDA20F000400130054B53F82000044B1B68181A18BF0120704701207047843A00006C83FF1F054B53F82020054B53F820309A4201D188
:4023C00001207047002070475081FF1FE839000008B5FFF76DF9084B53F8203043B10022054B43F8202040F00040044B186008BD024B186008BD00BF0C83FF1F9C83FF1F07
:4024000038B5364B1C680022354B1A60354A52F82430013342F82430334B53F824502046FFF7C6FF012801D0A54204D103222F4B43F8242003E002222C4B43F824202C4B09
:4024400053F824102B4A136823EA010313602A4B53F82440214B1C60B5F1FF3F0FD0234B53F82530032B07D10222204B43F825200022224B43F825202846FFF77FF9FFF796
:402480005BF9B0F1FF3F0BD1B4F1FF3F03D00022164B43F8242044F00044194B1C6038BD184B53F82020134B1B689A4208D800220E4B43F8242044F00044114B1C6038BD3E
:4024C00000210A4A42F82010094A52F820201343084A1360FFF77CFF38BD00BFEC81FF1F8C83FF1F5081FF1FFC80FF1F0C82FF1F043A00006883FF1FF081FF1F4483FF1F38
:402500009C83FF1F303A000080F0004002E000BF81F0004142001FBF5FEA410392EA030F7FEA226C7FEA236C6AD04FEA1262D2EB1363C1BFD218414048404140B8BF5B42A5
:40254000192B88BF704710F0004F40F4000020F07F4018BF404211F0004F41F4000121F07F4118BF494292EA030F3FD0A2F1010241FA03FC10EB0C00C3F1200301FA03F17B
:4025800000F0004302D5494260EB4000B0F5000F13D3B0F1807F06D340084FEA310102F10102FE2A51D2B1F1004F40EBC25008BF20F0010040EA03007047490040EB000096
:4025C00010F4000FA2F10102EDD1B0FA80FCACF1080CB2EB0C0200FA0CF0AABF00EBC25052421843BCBFD0401843704792F0000F81F4000106BF80F400000132013BB5E7BF
:402600004FEA41037FEA226C18BF7FEA236C21D092EA030F04D092F0000F08BF0846704790EA010F1CBF0020704712F07F4F04D1400028BF40F00040704712F100723CBF08
:4026400000F50000704700F0004343F0FE4040F4000070477FEA226216BF08467FEA23630146420206BF5FEA412390EA010F40F4800070474FF0000304E000BF10F0004306
:4026800048BF40425FEA000C08BF704743F0964301464FF000001CE050EA010208BF70474FF000030AE000BF50EA010208BF704711F0004302D5404261EB41015FEA010C4E
:4026C00002BF84460146002043F0B64308BFA3F18053A3F50003BCFA8CF2083AA3EBC25310DB01FA02FC634400FA02FCC2F12002BCF1004F20FA02F243EB020008BF20F071
:402700000100704702F1200201FA02FCC2F1200250EA4C0021FA02F243EB020008BF20EADC7070474FF0FF0C1CEAD0521EBF1CEAD15392EA0C0F93EA0C0F6FD01A4480EAB6
:40274000010C400218BF5FEA41211ED04FF0006343EA501043EA5111A0FB01310CF00040B1F5000F3EBF490041EAD3715B0040EA010062F17F02FD2A1DD8B3F1004F40EBD5
:40278000C25008BF20F00100704790F0000F0CF0004C08BF49024CEA502040EA51207F3AC2BFD2F1FF0340EAC250704740F400004FF00003013A5DDC12F1190FDCBF00F0BC
:4027C00000407047C2F10002410021FA02F1C2F1200200FA02FC5FEA310040F1000053EA4C0308BF20EADC70704792F0000F00F0004C02BF400010F4000F013AF9D040EAF7
:402800000C0093F0000F01F0004C02BF490011F4000F013BF9D041EA0C018FE70CEAD15392EA0C0F18BF93EA0C0F0AD030F0004C18BF31F0004CD8D180EA010000F00040FE
:40284000704790F0000F17BF90F0004F084691F0000F91F0004F14D092EA0C0F01D142020FD193EA0C0F03D14B0218BF084608D180EA010000F0004040F0FE4040F400005A
:40288000704740F0FE4040F4400070474FF0FF0C1CEAD0521EBF1CEAD15392EA0C0F93EA0C0F69D0A2EB030280EA010C49024FEA402037D04FF0805343EA111143EA101342
:4028C0000CF000408B4238BF5B0042F17D024FF4000C8B4224BF5B1A40EA0C00B3EB510F24BFA3EB510340EA5C00B3EB910F24BFA3EB910340EA9C00B3EBD10F24BFA3EBE0
:40290000D10340EADC001B0118BF5FEA1C1CE0D1FD2A3FF650AF8B4240EBC25008BF20F0010070470CF0004C4CEA50207F32C2BFD2F1FF0340EAC250704740F400004FF059
:402940000003013A37E792F0000F00F0004C02BF400010F4000F013AF9D040EA0C0093F0000F01F0004C02BF490011F4000F013BF9D041EA0C0195E70CEAD15392EA0C0F89
:4029800008D142027FF47DAF93EA0C0F7FF470AF084676E793EA0C0F04D14B023FF44CAF08466EE730F0004C18BF31F0004CCAD130F000427FF45CAF31F000437FF43CAF0E
:4029C0005FE700BF4FEA4002B2F1FE4F0FD34FF09E03B3EB12620DD94FEA002343F0004310F0004F23FA02F018BF404270474FF00000704712F1610F01D1420205D110F018
:402A0000004008BF6FF0004070474FF000007047014B1868704700BFC482FF1F0E4B70B51E460E4C0025E41AA410A54204D056F8253098470135F8E701F0BAF8084B094CED
:402A40001E46E41AA4100025A54204D056F8253098470135F8E770BDBC3B0000BC3B0000BC3B0000C43B000010B5431E0A44914204D011F8014B03F8014FF8E710BD034608
:402A80000244934202D003F8011BFAE77047000038B5124B05461C68A36BD3B9182000F0ABF843F20E33A06303804AF6CD33438041F2342383804EF26D63C3804DF6EC638B
:402AC0000381052343810B23838101220023C0E90423A36B00221D615A6138BDC482FF1F194B10B51C68A36BD3B9182000F084F843F20E33A06303804AF6CD33438041F23F
:402B0000342383804EF26D63C3804DF6EC630381052343810B23838101220023C0E90423A16B0A4C0B6948695C43094A02FB0040A3FB02230132034443F10003C1E90423A3
:402B400023F0004010BD00BFC482FF1F2DF451582D7F954C0EB400B54FF402719CB0ADF814106FF00041049107914FF6FF711DAB02900690084853F8042BADF8161000680A
:402B800002A9019300F044F9029B00221A701CB05DF804EB03B07047C482FF1F034613F8012B002AFBD1181A0138704713B5084B044600221868694600F00CF80028BCBF9D
:402BC0004FF0FF330093009804B1206002B010BDC482FF1F38B5074C0023054608461146236000F011FC431C02D1236803B12B6038BD00BFCC95FF1F024B0146186800F01B
:402C00004FB800BFC482FF1F38B50546002944D051F8043C0C1F002BB8BFE41800F0C1FB1E4A1368114613B96360146030E0A3420DD92268A018834201BF18685B681218AB
:402C4000226063600C6023E0A24203D813465A68002AF9D118681918A1420BD12168014458188242196013D110685268014419605A600DE002D90C232B6009E021686018ED
:402C8000824201BF106852680918216062605C602846BDE8384000F085BB38BD7C83FF1F70B5CD1C25F0030508350C2D38BF0C25002D064601DBA94202D90C23336046E0A5
:402CC00000F06FFB234B1C681A462146A1B10B685B1B0ED40B2B03D90B60CC18CD501EE08C420BBF63684B681360636018BF0C4615E00C464968E9E7174C23681BB93046B3
:402D000000F016FB20602946304600F011FB431C18D0C41C24F00304A0420DD12560304600F040FB04F10B00231D20F00700C31A0ED05A42E25070BD211A304600F0F8FA69
:402D40000130EBD10C233360304600F02BFB002070BD00BF7C83FF1F7883FF1F2DE9F0478E6882469E420C46914698463ED88A8912F4906F3AD02568096902236F1A656931
:402D800005EB450595FBF3F57B1C43449D4238BF1D4653050FD52946FFF782FF064698B13A462169FFF760FEA38923F4906343F08003A38113E02A4600F0F5FA064670B92E
:402DC00021695046FFF720FF0C23CAF80030A3894FF0FF3043F04003A381BDE8F08726613E44266046466561ED1BA560464528BF464649463246206800F0B8FAA3680020E5
:402E00009B1BA36023681E442660BDE8F08700002DE9F04F9DB003938B8980461C060D4616460DD50B695BB94021FFF739FF2860286118B90C23C8F80030CDE040236B6191
:402E40000023099320238DF82930DFF89CB130238DF82A3037463C4614F8013B1BB9B7EB060910D003E0252BF9D02746F3E74B46324629464046FFF771FF013000F0A78081
:402E8000099B4B4409933B78002B00F0A08000234FF0FF3204930793059206938DF853301A930126052221784E4800F051FA671C049B38B14B4A3C46801A06FA00F01843ED
:402EC0000490EFE7D90644BF20228DF853201A0744BF2B228DF8532022782A2A03D0079A00210A200BE0039A111D12680391002A10DA524243F00200079204900BE0274610
:402F00003B780134303B092B03D800FB02320121F5E701B107923B782E2B1ED17B782A2B0AD1039B02371A1D1B680392002BB8BF4FF0FF33059310E0002319460593781C2A
:402F40000A2407463A780130303A092A03D804FB01210123F5E703B1059103223978224800F0F6F940B14023CBEB000003FA00F0049B013718430490397806221B487E1C5E
:402F80008DF8281000F0E4F988B1194B33B9039B073323F007030833039314E003AB00932A46144B04A94046AFF3008007E003AB00932A460F4B04A9404600F093F8B0F19E
:402FC000FF3F824603D0099B5344099342E7AB895B0601D4099801E04FF0FF301DB0BDE8F08F00BF7A3B0000803B0000843B0000000000005D2D00002DE9F04791461F46AC
:403000000A698B6806469342B8BF1346C9F8003091F843200C46DDF8208012B10133C9F800302368990642BFD9F800300233C9F80030256815F0060510D104F1190A07E0DE
:403040000123524639463046C04701301AD00135E368D9F800209B1A9D42F1DB94F843302268003318BF012392060FD5E118302081F843005A1C94F845102244023382F807
:40308000431003E04FF0FF30BDE8F08704F1430239463046C0470130F4D02268D9F80050E36802F00602042A08BF5D1B2269A3680CBF25EAE57500259342C4BF9B1AED18C7
:4030C0004FF000091A344D4509D00123224639463046C0470130D5D009F10109F3E70020BDE8F0872DE9F04317460A7E85B06E2A984606460C460C9B01F1430E00F0AE80D8
:4031000011D8632A22D009D8002A00F0BB80582A40F0CA8081F84520834955E0642A1ED0692A1CD0C0E0732A00F0B08009D86F2A2ED0702A40F0B8800A6842F020020A6014
:403140003EE0752A24D0782A3AD0ADE01A6801F14205111D1960136884F84230A8E021681A6811F0800F02D0111D196008E011F0400F02F10401196002D0B2F9003000E0C8
:403180001368002B3CDA2D225B4284F8432037E021681A6811F0800F02D0111D196007E011F0400F02F10401196001D0138800E01368227E5C496F2A14BF0A2208221BE0EC
:4031C00078225A4984F845202268186812F0800F00F104051D6003D1550601D5038800E00368D00744BF42F0200222601BB9226822F0200222601022002084F8430001E00E
:4032000049490A226568002DA56008DB206820F0040020602BB9002D7DD175460CE0002B79D07546B3FBF2F002FB1033CB5C05F8013D03460028F5D1082A0BD12368DA07BA
:4032400008D5236962689A42DEBF302305F8013C05F1FF35C5EB0E0323612EE008681A6810F0800F496903D0101D1860136808E010F0400F02F104001860136801D01980E7
:4032800000E0196000232361754616E01A68111D1960156800216268284600F059F808B1401B6060636804E004F1420584F8422001232361002384F84330CDF800803B4600
:4032C00003AA21463046FFF797FE013002D14FF0FF3026E023692A4639463046C0470130F5D023689B0710D5002504F1190907E001234A4639463046C0470130E7D0013550
:40330000E368039A9B1A9D42F2DBE068039B9842B8BF184605E00B7804F1420584F842308AE705B0BDE8F0838B3B00009C3B000038B5064C0023054608462360FDF738FC9C
:40334000431C02D1236803B12B6038BDCC95FF1F10B5C9B202449042034605D01C7801308C42F8D1184610BD002010BD884210B501EB020301D8421E0BE09842FBD281180F
:40338000D21AD34204D013F8014D01F8014DF8E710BD994204D011F8014B02F8014FF8E710BD70477047F8B5074615460E4621B91146BDE8F840FFF773BC1AB9FFF724FCBF
:4033C0002846F8BD00F015F885420ED929463846FFF766FC044650B131462A46FFF744FB31463846FFF710FC01E03046F8BD2046F8BD51F8040C0028BEBF091851F8043C8D
:40340000C018043870470000024B58221A604FF0FF307047CC95FF1F00000000526F756E64206E756D626572202564200D0A00004772656174202D20636F727265637420D9
:40344000627574746F6E207072657373656400002573200D0A0000005265616374696F6E2074696D65203A2564206D73200D0A00436F727265637420627574746F6E73208C
:403480007072657373203D202564200D0A000000496E636F727265637420627574746F6E207072657373656400000000546F6F20736C6F770000000047616D6520456E645F
:4034C0007300000025730D0A00000000436F727265637420627574746F6E732070726573736564203D2025640D0A0000546F74616C2074696D65203D2025646D73200D0A86
:4035000000000000417665726167652074696D65203D2025642E25303664206D73200D0A000000005265616374696F6E20746573742070726F6772616D20726F756E642012
:40354000310000000D0A2573203A00007072657373206F6E65206F66207468652074776F20627574746F6E7320746F2073746172742E2E2E000000000000010001000100A5
:4035800001000100010001000100020002000200020002000200020002000200020002000200030003000300030003000300030004000400040004000400040005000500B7
:4035C0000500050005000600060006000600070007000700080008000800090009000A000A000A000B000B000C000C000D000D000E000F000F00100011001100120013007C
:403600001400150016001700180019001A001B001C001D001F0020002100230024002600280029002B002D002F0031003400360038003B003D0040004300460049004C0047
:403640004F00530057005B005F00630067006C00700075007B00800086008C00920098009F00A600AD00B500BD00C500CE00D700E100EB00F50000010B011701240130013B
:403680003E014C015B016A017A018B019C01AF01C201D601EA01000217022E02470261027C029802B502D402F402160339035D038303AB03D50300042D045D048E04C2049D
:4036C000F80430056B05A805E8052B067106BA0606075607A90700085B08B9081C098309EF09600AD50A500BD10B560CE20C740D0D0EAC0E520F0010B510731138120713F4
:40370000DF13C014AB15A116A117AD18C419E91A1A1C581DA51E00206B21E52271240E26BD278029562B412D422F5A318933D1353338B03A493D0040D542CB45E2481C4CF7
:403740007A4FFF52AC56825A845EB3621267A26B66706075927A0080AA85958BC3913798F59EFEA558AD04B508BD66C524CE44D7CCE0C0EA25F5FFFF09000000FF000000C4
:40378000F40100FF0000F4010000FF00F401000000006400FFFFFF006400000000006400FFFFFF006400000000006400FFFFFF0064000000405100403000F051004010004B
:4037C00000000140001000140140000800400140000A004C01400002005001402000000060520040BC08004806000000FF000101020202020303030303030303040404041B
:403800000404040404040404040404040505050505050505050505050505050505050505050505050505050505050505060606060606060606060606060606060606060640
:4038400006060606060606060606060606060606060606060606060606060606060606060606060606060606060606060707070707070707070707070707070707070707B4
:403880000707070707070707070707070707070707070707070707070707070707070707070707070707070707070707070707070707070707070707070707070707070748
:4038C000070707070707070707070707070707070707070707070707070707070707070707070707070707070707070701000000F438000000000000010000000200000064
:403900000100000000000000FFFFFFFF00000000030000000000000000000000FFFFFFFF00000000040000000000000000000000FFFFFFFF00000000050000000000000086
:4039400000000000FFFFFFFF00000000060000000000000000000000FFFFFFFF00000000000000000000000000000000010000000000000000000000020000000000000046
:4039800000000000030000000000000000000000040000000000000000000000010000000200000003000000040000000000000001000000020000000300000004000000EC
:4039C000A086010001000000000000000000000000000000010000000000000000000000000000000000000001000000010000000100000001000000010000000100000098
:403A0000010000008000000001000000100000002000000080000000020000000200000001000000020000000400000008000000010000000100000010000000200000000F
:403A400080000000020000000200000095000000010100000501000069010000550100009D010000A901000061230000612300006123000061230000612300006123000005
:403A8000612300000000000000000000000000000100000000000000000000000000000000000000616C726D5F35306D73000000616C726D5F72616E646F6D54696D650016
:403AC000616C726D5F54696D65720000616C726D5F66616465720000616C726D5F676C6F7765720065765F35306D730065765F62746E3150726573730000000065765F623B
:403B0000746E3250726573730000000065765F726573657447616D650000000074736B5F696E69740000000074736B5F6261636B67726F756E64000074736B5F636F6E74F2
:403B4000726F6C0074736B5F74696D6544656C617900000074736B5F74696D657200000074736B5F666164657200000074736B5F676C6F77657200004300232D302B2000D5
:403B8000686C4C006566674546470030313233343536373839414243444546003031323334353637383961626364656600000000F8B500BFF8BC08BC9E4670474D00000011
:403BC0002D0C0000F8B500BFF8BC08BC9E46704729000000E83B0000C880FF1F00020000081300000000000000000000D095FF1F0000E02EC05D00001800000000366E01D3
:403C0000A43A0000B03A0000C03A0000CC3A0000D83A000000000000FFFFFFFFFFFFFFFFFFFFFFFFFFFFFFFFFFFFFFFFFFFFFFFFFFFFFFFFFFFFFFFF0100000002000000C7
:403C400003000000040000000500000006000000FFFFFFFF000000000000000004000000050000000700000001000000010000000100000001000000010000000100000020
:403C8000010000000100000001000000FFFFFFFFFFFFFFFFFFFFFFFFFFFFFFFFFFFFFFFFFFFFFFFFFFFFFFFFFFFFFFFFFFFFFFFFFFFFFFFFFFFFFFFFFFFFFFFFFFFFFFFF35
:403CC000FFFFFFFFFFFFFFFFFFFFFFFFFFFFFFFFFFFFFFFFFFFFFFFFFFFFFFFFFFFFFFFFFFFFFFFFFFFFFFFFFFFFFFFFFFFFFFFFFFFFFFFFFFFFFFFFFFFFFFFFFFFFFFFF04
:403D0000FFFFFFFFFFFFFFFFFFFFFFFFFFFFFFFFFFFFFFFFFFFFFFFFFFFFFFFFFFFFFFFFFFFFFFFFFFFFFFFFFFFFFFFF0300000003000000030000000300000003000000A0
:403D40000300000003000000E43A0000EC3A0000FC3A00000C3B00001C3B0000283B0000383B0000443B0000543B0000603B00006C3B0000CC95FF1F000000001893FF1FB7
:403D8000000000000000000000000000000000000000000000000000000000000000000000000000783B000000000000000000000000000000000000000000000000000050
:403DC0000000000000000000000000000000000000000000000000000000000000000000000000006482FF1F000000000000000000000000000000000000000000000000BF
:403E00000000000000000000000000000000000000000000000000000000000000000000000000000000000000000000000000000000000000000000000000000000000082
:403E40000000000000000000000000000000000000000000000000000000000000000000000000000000000000000000000000000000000000000000000000000000000042
:403E80000000000000000000000000000000000000000000000000000000000000000000000000000000000000000000000000000000000000000000000000000000000002
:403EC00000000000000000000000000000000000000000000000000000000000000000000000000000000000000000000000000000000000000000000000000000000000C2
:020000040003F7
:0200000480007A
:4000000003520040076400400265004045020140230301404004014021050140010701405E0801403C0901404A0A0140290B0140440C0140280D0140430E01401E0F014077
:400040004018014042190140731A01404B1B0140024001400B41014006420140024301400A45014003460140094D01400750014001510140018010111110830D850D883836
:40008000890D8B0D8D0D8F0D8872890F1601250129012E013101360139023F014060410249FF4AFF4BFF4DA04F045018580459045A045F01604062C06440654066C068C09A
:4000C0006AC06CC06EC086028F019201A101A204AA02B004B202B401B701BE04C020C106C5D0C601C702C816C9FFCAFFCBFFCDAFCE0FCF04D018D280D405D804D904DA046B
:40010000DB04DF01E040E2C0E440E540E6C0E8C0EAC0ECC0EEC0000409020F20108012041580180419061B101F402240274029022F28398040044604480849014F205088F2
:400140005140520459055A8071028740C004C228C48ACA61CE08D024D224D60B2E01340136014010410249FF4AFF4BFF4DA04F045018528058045A045B045F01604062C0A0
:400180006440654066C068C06AC06CC06EC0830386019E01A101AE02AF02B101B302B401B602BE10C060C102C5D0C620C710C82AC9FFCAFFCBFFCDAFCE0FCF04D018D40564
:4001C000D804D904DA04DB04DF01E040E2C0E440E540E6C0E8C0EAC0ECC0EEC006200E0110021602180119801A011B101E081F8027A02D802F803E024001412045204F2156
:40020000552056225E085F817002AB40AF28C020C280C481CA90CE80D02CD220D6D0AB20010402020418051808080B430D10111C1202134215471604171818181A051B0483
:400240001D1C1F41201D2320240525082618281C2A012B202C102D5F300131203202331F3558361C38023B283E043F014050410249FF4AFF4BFF4DA04F045018541858042B
:4002800059045A045B045C225D205F01604062C06440654066C068C06AC06CC06EC087019301B301BF04C050C106C5D0C601C702C816C9FFCAFFCBFFCDAFCE0FCF04D01810
:4002C000D405D904DA04DB04DF01E040E2C0E440E540E6C0E8C0EAC0ECC0EEC00404051206080BC00D200E800F1014801540168117241E801F442204248025202610272034
:400300002E882F483201340835403620370538803A443C0C3D403E023F104604480849014A024E0350885204584059015A085C016640670889408A108B2192029840A4807C
:40034000C070C270C4F0CAF0CCF1CEF2D020D21CD68BD83012011F03210222022F0130023102350136014030410149FF4AFF4BFF4DA04F0450185280580459045A045B04EE
:400380005D015F01604062C06440654066C068C06AC06CC06EC0830287018B02A501AA02AE01B201B402B502B701BF10C030C104C5D0C721C832C9FFCAFFCBFFCDAFCE0F80
:4003C000CF04D018D280D405D804D904DA04DB04DC11DD11DF01E040E2C0E440E540E6C0E8C0EAC0ECC0EEC00A401080144015021608174019421A021C101D081F102101B6
:4004000023042640270829422F1030803C103E0A40104202450A4F015502560A57085E805F09724077408B049410A708C208C4C8CA49CC08CEE0D0CAD6D00B012B013101A3
:400440004060410249FF4AFF4BFF4DA04F04501859045A045C105D015F01604062C06440654066C068C06AC06CC06EC086028702910192019B05A602A702B104B202B3020F
:40048000B401B701BF04C020C106C5D1C702C813C9FFCAFFCBFFCDAFCE0FCF04D018D280D405D804D904DA04DB04DC11DD11DF01E040E2C0E440E540E6C0E8C0EAC0ECC0B1
:4004C000EEC000040A40102018041A101B102102224427802B102F08302031023A043C1040044604482849014F205008520459015A887240821083208780A320C004C208D0
:40050000C404CA22CC05CE22D024D224D60BE003E4040A0226022E01320134024030410249FF4AFF4BFF4DA04F045018528058045A045B045C015D115F01604062C0644032
:40054000654066C068C06AC06CC06EC08B019A01A702AB01AC01B001B102B501BF10C020C103C5D1C620C80BC9FFCAFFCBFFCDAFCE0FCF04D018D405D804D904DA04DB0441
:40058000DC11DD11DF01E040E2C0E440E540E6C0E8C0EAC0ECC0EEC000100C201022178018101B281E8027882C242F083E2040104120440446204C204D01552056205D011F
:4005C0005E805F087002C002C240C485CA60CE20D066D6D0001F0102041C0501060309010A030C080D0610041101141F1706181319041A0C1D062003240C270628022B06D2
:400600002C012D063301340F361037063A203B023E4056025713580459045B045C225D205F0188029401B201B602BE44C062C105C6BCC70EC81CC9FFCAFFCBFFCEF0CF443B
:40064000D00CD401D804DA04DB04DD22DF01E6C0EA40EB02012004200621076009080D220E2016921710180219041D201E0224212501260827402E202F22348036083751D7
:400680003D203E8642084A0651485310580159045A505E0260086120620863106D206E046F017404751076157A107B2089208B029340940197109B209C889D129E03A210BB
:4006C000A404A620A708C0F2C274C4F0CA70CCF0CEF0D004D20CD68F030C0410058006AC07130A030C0C0E711414152C174319711B061C091ED01F08201021712240230E61
:40070000262028DC2A2230E031C0330F341F353039223A023B083F104002454049FF4A074BFF4C404D204EF04F055008580459045A045C225D025F01604061A86240632050
:40074000801381018204831A848085038620881389038A0C8C208EC0940A961498E099029B099C039E14A208A615A8E0AB04AC40AE20B010B10CB2E0B303B40FB510BA208B
:40078000BE01BF01C026C104C205C401C5E0C70CC812C9FFCAFFCBFFCC62CDA0CEF0CF41D00CD804D904DA04DC22DD02DF01E640E702E910EA30EB10ED10EE10EF12000420
:4007C00001200202051107110A020B200D480E041080110413101516160219211C041D101E481F042119220123102620275029012C082F04308031183710380839063A080E
:400800003D303E0641104521474048804D024E084F40500457086101620288088A828B0191809204936096409D229E8A9F10A131A208A626A708A940AA10AC01AD08B40175
:40084000B502B604C0F7C2E5C4FECA21CC2ECEE3D0B4D2303240CC1006020B205B04631087109680C080C210D640D840E2109F04AA40AE02AF10EC50EE80AB04EA80500882
:40088000568059086604810882048408D406D602D8018A809E80E40410407C4088409040B440C408DE04E201E802000708010A010C070E0210041C040003000080800000D9
:4008C0004000000018C0C000C0000000800040808000800000000000FFFF000000000000003939003900000020200000000000000000000000000000000000000000000037
:4009000000000000000000000000000000000000000000000000000000000000000000000000000000000000000000000000000000000000000000000000000000000000B7
:400940000000000000000000000000000000000000000000000000000000000000000000000000000000000000000000000000000000000000000000000000000000000077
:400980000000000000000000000000000000000000000000000000000000000000000000000000000000000000000000000000000000000000000000000000000000000037
:4009C00000000000000000000000000000000000000000000000000000000000000000000000000000000000000000000000000000000000000000000000000000000000F7
:0200000490006A
:0400000000004007B5
:0200000490105A
:04000000BC90ACAF55
:0200000490303A
:020000007F205F
:0200000490402A
:4000000000000000000000000000000000000000000000000000000000000000000000000000000000000000000000000000000000000000000000000000000000000000C0
:400040000000000000000000000000000000000000000000000000000000000000000000000000000000000000000000000000000000000000000000000000000000000080
:400080000000000000000000000000000000000000000000000000000000000000000000000000000000000000000000000000000000000000000000000000000000000040
:4000C0000000000000000000000000000000000000000000000000000000000000000000000000000000000000000000000000000000000000000000000000000000000000
:0200000490501A
:0C00000000012E16106900012E2F8F89C0
:00000001FF